{
  "_format": "hh-sol-artifact-1",
  "contractName": "MyContract",
  "sourceName": "contracts/MyContract.sol",
  "abi": [
    {
      "inputs": [
        {
          "internalType": "uint256",
          "name": "_initialSupply",
          "type": "uint256"
        }
      ],
      "stateMutability": "nonpayable",
      "type": "constructor"
    },
    {
      "inputs": [
        {
          "internalType": "address",
          "name": "",
          "type": "address"
        },
        {
          "internalType": "address",
          "name": "",
          "type": "address"
        }
      ],
      "name": "allowance",
      "outputs": [
        {
          "internalType": "uint256",
          "name": "",
          "type": "uint256"
        }
      ],
      "stateMutability": "view",
      "type": "function"
    },
    {
      "inputs": [
        {
          "internalType": "address",
          "name": "",
          "type": "address"
        }
      ],
      "name": "balanceOf",
      "outputs": [
        {
          "internalType": "uint256",
          "name": "",
          "type": "uint256"
        }
      ],
      "stateMutability": "view",
      "type": "function"
    },
    {
      "inputs": [],
      "name": "decimals",
      "outputs": [
        {
          "internalType": "uint8",
          "name": "",
          "type": "uint8"
        }
      ],
      "stateMutability": "view",
      "type": "function"
    },
    {
      "inputs": [],
      "name": "name",
      "outputs": [
        {
          "internalType": "string",
          "name": "",
          "type": "string"
        }
      ],
      "stateMutability": "view",
      "type": "function"
    },
    {
      "inputs": [],
      "name": "symbol",
      "outputs": [
        {
          "internalType": "string",
          "name": "",
          "type": "string"
        }
      ],
      "stateMutability": "view",
      "type": "function"
    },
    {
      "inputs": [],
      "name": "totalSupply",
      "outputs": [
        {
          "internalType": "uint256",
          "name": "",
          "type": "uint256"
        }
      ],
      "stateMutability": "view",
      "type": "function"
    },
    {
      "inputs": [
        {
          "internalType": "address",
          "name": "recipient",
          "type": "address"
        },
        {
          "internalType": "uint256",
          "name": "amount",
          "type": "uint256"
        }
      ],
      "name": "transfer",
      "outputs": [
        {
          "internalType": "bool",
          "name": "",
          "type": "bool"
        }
      ],
      "stateMutability": "nonpayable",
      "type": "function"
    }
  ],
  "bytecode": "0x60c060405260096080908152682a32b9ba2a37b5b2b760b91b60a0526000906200002a908262000172565b5060408051808201909152600381526254544b60e81b602082015260019062000054908262000172565b506002805460ff191660121790553480156200006f57600080fd5b50604051620008293803806200082983398101604081905262000092916200023e565b600254620000a59060ff16600a6200036d565b620000b1908262000382565b600381905533600090815260046020526040902055506200039c565b634e487b7160e01b600052604160045260246000fd5b600181811c90821680620000f857607f821691505b6020821081036200011957634e487b7160e01b600052602260045260246000fd5b50919050565b601f8211156200016d57600081815260208120601f850160051c81016020861015620001485750805b601f850160051c820191505b81811015620001695782815560010162000154565b5050505b505050565b81516001600160401b038111156200018e576200018e620000cd565b620001a6816200019f8454620000e3565b846200011f565b602080601f831160018114620001de5760008415620001c55750858301515b600019600386901b1c1916600185901b17855562000169565b600085815260208120601f198616915b828110156200020f57888601518255948401946001909101908401620001ee565b50858210156200022e5787850151600019600388901b60f8161c191681555b5050505050600190811b01905550565b6000602082840312156200025157600080fd5b5051919050565b634e487b7160e01b600052601160045260246000fd5b600181815b80851115620002af57816000190482111562000293576200029362000258565b80851615620002a157918102915b93841c939080029062000273565b509250929050565b600082620002c85750600162000367565b81620002d75750600062000367565b8160018114620002f05760028114620002fb576200031b565b600191505062000367565b60ff8411156200030f576200030f62000258565b50506001821b62000367565b5060208310610133831016604e8410600b841016171562000340575081810a62000367565b6200034c83836200026e565b806000190482111562000363576200036362000258565b0290505b92915050565b60006200037b8383620002b7565b9392505050565b808202811582820484141762000367576200036762000258565b61047d80620003ac6000396000f3fe608060405234801561001057600080fd5b506004361061007d5760003560e01c806370a082311161005b57806370a08231146100d657806395d89b41146100f6578063a9059cbb146100fe578063dd62ed3e1461012157600080fd5b806306fdde031461008257806318160ddd146100a0578063313ce567146100b7575b600080fd5b61008a61014c565b60405161009791906102e8565b60405180910390f35b6100a960035481565b604051908152602001610097565b6002546100c49060ff1681565b60405160ff9091168152602001610097565b6100a96100e4366004610352565b60046020526000908152604090205481565b61008a6101da565b61011161010c366004610374565b6101e7565b6040519015158152602001610097565b6100a961012f36600461039e565b600560209081526000928352604080842090915290825290205481565b60008054610159906103d1565b80601f0160208091040260200160405190810160405280929190818152602001828054610185906103d1565b80156101d25780601f106101a7576101008083540402835291602001916101d2565b820191906000526020600020905b8154815290600101906020018083116101b557829003601f168201915b505050505081565b60018054610159906103d1565b60006001600160a01b0383166102365760405162461bcd60e51b815260206004820152600f60248201526e496e76616c6964206164647265737360881b60448201526064015b60405180910390fd5b3360009081526004602052604090205482111561028c5760405162461bcd60e51b8152602060048201526014602482015273496e73756666696369656e742062616c616e636560601b604482015260640161022d565b33600090815260046020526040812080548492906102ab908490610421565b90915550506001600160a01b038316600090815260046020526040812080548492906102d8908490610434565b9091555060019150505b92915050565b600060208083528351808285015260005b81811015610315578581018301518582016040015282016102f9565b506000604082860101526040601f19601f8301168501019250505092915050565b80356001600160a01b038116811461034d57600080fd5b919050565b60006020828403121561036457600080fd5b61036d82610336565b9392505050565b6000806040838503121561038757600080fd5b61039083610336565b946020939093013593505050565b600080604083850312156103b157600080fd5b6103ba83610336565b91506103c860208401610336565b90509250929050565b600181811c908216806103e557607f821691505b60208210810361040557634e487b7160e01b600052602260045260246000fd5b50919050565b634e487b7160e01b600052601160045260246000fd5b818103818111156102e2576102e261040b565b808201808211156102e2576102e261040b56fea2646970667358221220c33f587b2a6d5e89f396a369124a0af09ae6abbe87717366cdf8f9482daa05e764736f6c63430008140033",
  "linkReferences": {},
  "deployedLinkReferences": {}
}